:100000000C9424010C94A4010C9400020C9468013B
:100010000C9441010C948B010C9441010C9441010E
:100020000C9441010C9441010C9441010C94410148
:100030000C9441010C9441010C9443010C94410136
:100040000C9441010C9441010C946A0B0C944101F5
:100050000C9441010C9441010C9441010C94410118
:100060000C9441010C944101000000000000005F6D
:1000700000000007000700147F147F14242A7F2A41
:10008000122313086462364955225000050300000C
:10009000001C2241000041221C0014083E081408E4
:1000A000083E0808005030000008080808080060F2
:1000B00060000020100804023E5149453E00427F86
:1000C000400042615149462141454B311814127F8D
:1000D0001027454545393C4A494930017109050316
:1000E0003649494936064949291E0036360000007E
:1000F0005636000008142241001414141414004150
:100100002214080201510906324979413E7E11113B
:10011000117E7F494949363E414141227F4141227A
:100120001C7F494949417F090909013E4149497AF2
:100130007F0808087F00417F41002040413F017F48
:10014000081422417F404040407F020C027F7F0420
:1001500008107F3E4141413E7F090909063E415159
:10016000215E7F09192946464949493101017F012C
:10017000013F4040403F1F2040201F3F4038403F4C
:100180006314081463070870080761514945430068
:100190007F41410002040810200041417F00040219
:1001A0000102044040404040000102040020545439
:1001B00054787F48444438384444442038444448C0
:1001C0007F3854545418087E0901020C5252523E92
:1001D0007F0804047800447D40002040443D007FB7
:1001E0001028440000417F40007C041804787C08FB
:1001F00004047838444444387C1414140808141453
:10020000187C7C080404084854545420043F44409B
:10021000203C4040207C1C2040201C3C4030403C86
:1002200044281028440C5050503C4464544C440022
:100230000836410000007F00000041360800100829
:10024000081008000000000011241FBECFEFD8E006
:10025000DEBFCDBF11E0A0E0B1E0E0E1F5E202C019
:1002600005900D92A839B107D9F723E0A8E9B1E0CC
:1002700001C01D92A83CB207E1F70E94A9080C94A6
:1002800086120C9400001F920F920FB60F92112449
:100290008F939F93AF93BF938091C0019091C101C1
:1002A000A091C201B091C3010196A11DB11D80931F
:1002B000C0019093C101A093C201B093C301BF914B
:1002C000AF919F918F910F900FBE0F901F90189537
:1002D0001F920F920FB60F9211248F939F931E9B24
:1002E00013C080910A0190910B018530910538F07F
:1002F00081E090E090930B0180930A0105C0019684
:1003000090930B0180930A019F918F910F900FBEE4
:100310000F901F9018951F920F920FB60F921124F5
:100320008F939F934C9B09C08091BA019091BB0120
:1003300001969093BB018093BA019F918F910F908A
:100340000FBE0F901F9018951F920F920FB60F922D
:1003500011248F939F9380910A0190910B01823019
:100360009105A1F480910E0190910F0101978530C4
:10037000910528F090930F0180930E013AC085E01B
:1003800090E090930F0180930E0133C0833091056C
:1003900061F48091BC019091BD01009751F10197EA
:1003A0009093BD018093BC0124C084309105A1F4D9
:1003B00080910C0190910D018230910538F481E01B
:1003C00090E090930D0180930C0113C001979093DE
:1003D0000D0180930C010DC0059759F48091B00177
:1003E0009091B101009729F001979093B10180930A
:1003F000B0019F918F910F900FBE0F901F90189595
:100400001F920F920FB60F9211248F939F9380919A
:100410000A0190910B0182309105A1F480910E01A7
:1004200090910F0101968F31910528F490930F015F
:1004300080930E014AC08EE190E090930F0180936B
:100440000E0143C083309105A1F48091BC019091CD
:10045000BD018A30910538F08AE090E09093BD01AB
:100460008093BC0132C001969093BD018093BC0182
:100470002CC084309105A1F480910C0190910D0164
:100480008830910538F088E090E090930D018093DA
:100490000C011BC0019690930D0180930C0115C0B7
:1004A000059799F48091B0019091B1018730910541
:1004B00038F087E090E09093B1018093B00105C0DF
:1004C00001969093B1018093B0019F918F910F900D
:1004D0000FBE0F901F9018952F923F924F925F92F0
:1004E0006F927F928F929F92AF92BF92CF92DF9244
:1004F000EF92FF920F931F93CF93DF93CDB7DEB7A9
:10050000A7970FB6F894DEBF0FBECDBF2B013C01FD
:100510002CA33DA30EA31FA33CAC2DAC5F934F9324
:1005200008E111E01F930F93CE0101969F938F93E3
:100530000E94810EC501880F991FAA0CBB1CAA0C32
:10054000BB1CAA0CBB1CA80EB91EBF92AF921F9376
:100550000F93CE0106969F938F930E94810E2DA13B
:100560002F933CA13F931F930F93CE010B969F9324
:100570008F930E94810E4FA14F935EA15F931F93B3
:100580000F93CE0140969F938F930E94810EFF920E
:10059000EF921F930F93CE0145969F938F930E94E6
:1005A000810E2F923F921F930F93CE014A969F93F5
:1005B0008F930E94810E6EAD7FAD80E090E00E942F
:1005C000E30C29E432E944E651E40E94950D0FB6AC
:1005D000F894DEBF0FBECDBF0E94B40C7F936F9323
:1005E0001F930F93CE014F969F938F930E94810E7E
:1005F0000F900F900F900F900F900F9031E0831697
:10060000910409F05DC08091AC019091AD01A09181
:10061000AE01B091AF01A3019201281B390B4A0B27
:100620005B0B283C31054105510508F4A8C10E9427
:10063000E10961E08BE191E00E94D00A6AE080E08C
:100640000E94E30A61E0CE010B960E94D00A61E0AD
:1006500085E291E00E94D00A64E180E00E94E30A12
:1006600061E0CE0140960E94D00A61E08AE291E00A
:100670000E94D00A6EE180E00E94E30A61E0CE01B0
:1006800045960E94D00A61E08EE291E00E94D00A75
:1006900068E280E00E94E30A61E0C6010E94D00A9D
:1006A00061E081E391E00E94D00A0E94E80A409252
:1006B000AC015092AD016092AE017092AF015FC18A
:1006C00032E08316910409F050C08091AC01909102
:1006D000AD01A091AE01B091AF01A3019201281B21
:1006E000390B4A0B5B0B283C31054105510508F4D9
:1006F00046C10E94E10961E087E391E00E94D00ACF
:1007000064E180E00E94E30A61E0CE0101960E946C
:10071000D00A61E081E491E00E94D00A6EE180E0BD
:100720000E94E30A61E0CE0106960E94D00A61E0D1
:100730008EE491E00E94D00A68E280E00E94E30A21
:1007400061E0CE014A960E94D00A61E083E591E023
:100750000E94D00A0E94E80A4092AC015092AD017A
:100760006092AE017092AF010AC133E0831691042A
:1007700009F050C08091AC019091AD01A091AE0103
:10078000B091AF01A3019201281B390B4A0B5B0BFF
:10079000283C31054105510508F4F1C00E94E109EA
:1007A00061E087E391E00E94D00A64E180E00E946A
:1007B000E30A61E0CE0101960E94D00A61E08BE578
:1007C00091E00E94D00A6EE180E00E94E30A61E0BD
:1007D000CE0106960E94D00A61E085E691E00E9473
:1007E000D00A68E280E00E94E30A61E0CE014A9606
:1007F0000E94D00A61E083E591E00E94D00A0E9445
:10080000E80A4092AC015092AD016092AE01709244
:10081000AF01B5C034E08316910409F050C0809157
:10082000AC019091AD01A091AE01B091AF01A301D7
:100830009201281B390B4A0B5B0B283C3105410503
:10084000510508F49CC00E94E10961E087E391E052
:100850000E94D00A64E180E00E94E30A61E0CE01D8
:1008600001960E94D00A61E08BE591E00E94D00AD7
:100870006EE180E00E94E30A61E0CE0106960E94EC
:10088000D00A61E08EE491E00E94D00A68E280E044
:100890000E94E30A61E0CE014A960E94D00A61E01C
:1008A0008DE691E00E94D00A0E94E80A4092AC01D5
:1008B0005092AD016092AE017092AF0160C035E020
:1008C00083169104A1F58091AC019091AD01A091A6
:1008D000AE01B091AF01A3019201281B390B4A0B65
:1008E0005B0B283C31054105510508F448C00E94C6
:1008F000E10961E088E791E00E94D00A64E180E0CC
:100900000E94E30A61E0CE014F960E94D00A61E0A6
:1009100084E891E00E94D00A0E94E80A4092AC016B
:100920005092AD016092AE017092AF0128C08091EB
:10093000AC019091AD01A091AE01B091AF01A301C6
:100940009201281B390B4A0B5B0B283C31054105F2
:100950005105A8F00E94E10964E180E00E94E30AE9
:1009600062E08EE891E00E94D00A0E94E80A40927C
:10097000AC015092AD016092AE017092AF01A796AA
:100980000FB6F894DEBF0FBECDBFDF91CF911F91A0
:100990000F91FF90EF90DF90CF90BF90AF909F901E
:1009A0008F907F906F905F904F903F902F90089521
:1009B0002F923F924F925F926F927F928F929F926F
:1009C000AF92BF92CF92DF92EF92FF920F931F935D
:1009D000CF93DF93CDB7DEB7A8970FB6F894DEBFFD
:1009E0000FBECDBF2B013C013CA32BA3180180906F
:1009F000060190900701A0900801B09009012FEF27
:100A000082169206A206B20669F1950184010F5F73
:100A10001F4F2F4F3F4FDE011196C12CD12C760175
:100A200080ED97E08D939D9386509F4F6FEFC61A90
:100A3000D60AE60AF60AC016D106E206F30690F3D5
:100A400094012F5F3F4F75016401CC0CDD1CEE1C3F
:100A5000FF1CC901A0E0B0E08C159D05AE05BF05E7
:100A600058F023C00F2EFEEFCF2EDD24DA94ED2CAC
:100A7000FD2CF02D20E030E0F401EE0FFF1F81E0AF
:100A800090E08C0F9D1FE80FF91F819191918A5F73
:100A90009109918380832F5F3F4FC901A0E0B0E0AF
:100AA0008C159D05AE05BF0580F3DA016D917C9133
:100AB0008CE390E00E940E0E80E090E00E94E30C38
:100AC00020E030E04AE754E40E94950D6DA37EA338
:100AD0008FA398A7C701B6010E94E30C9B01AC014C
:100AE0006DA17EA18FA198A50E94420C6B017C0193
:100AF0008091A8019091A901A091AA01B091AB01A8
:100B0000A3019201281B390B4A0B5B0BCA01B901E7
:100B10000E94E30C9B01AC01C701B6010E943D0C91
:100B200018160CF449C0ABA1BCA1ED91FC91119732
:100B3000EE0FFF1FEC0FFD1F8181928190938900C2
:100B4000809388008D919C91119701968D939C9331
:100B5000A0E0B0E0409106015091070160910801CA
:100B600070910901440F551F661F771F8417950761
:100B7000A607B70779F4EBA1FCA1118210828101CD
:100B800020E030E000930601109307012093080154
:100B9000309309018091880090918900803D9740B1
:100BA00011F45E9A01C05E984092A8015092A9018A
:100BB0006092AA017092AB01A8960FB6F894DEBFBE
:100BC0000FBECDBFDF91CF911F910F91FF90EF909E
:100BD000DF90CF90BF90AF909F908F907F906F905D
:100BE0005F904F903F902F900895CF93DF93CDB7B4
:100BF000DEB768970FB6F894DEBF0FBECDBFDE013B
:100C0000119628E1FD0111922A95E9F720ED37E0D0
:100C10003A83298328E938E03C832B8320E639E0B6
:100C20003E832D8328E23AE038872F8320EF3AE095
:100C30003A87298728EB3BE03C872B8720E83CE07C
:100C40003E872D8728E43DE0388B2F8720E13EE06A
:100C50003A8B298B28ED3EE03C8B2B8B20EA3FE042
:100C60003E8B2D8BFC0180819181FC01EE0FFF1FDB
:100C7000EA0FFB1F8081918190938B0080938A0003
:100C800068960FB6F894DEBF0FBECDBFDF91CF914F
:100C90000895CF92DF92EF92FF920F931F93CF931D
:100CA000DF93F9010091A4011091A5012091A60103
:100CB0003091A7016B017C01C01AD10AE20AF30A44
:100CC000A8EBCA16ABE0DA06E104F104A8F0EA01E9
:100CD000A881B98114E11A9F90011B9F300D112446
:100CE00031832083198218826093A4017093A50137
:100CF0008093A6019093A701DF91CF911F910F914F
:100D0000FF90EF90DF90CF900895CF92DF92EF9217
:100D1000FF920F931F93CF93DF93E9010091A001FE
:100D20001091A1012091A2013091A3016B017C01DE
:100D3000C01AD10AE20AF30A26E9C216D104E10474
:100D4000F10408F43FC08A016B017C01888199811C
:100D5000892B81F5609178007091790080E090E0B6
:100D60000E94E30C29E334EB48E45DE30E94950D17
:100D70002FE83AE240E251E40E94D10B0E94B40C09
:100D8000F801718360836E32710528F08DE290E086
:100D90009183808308C06E31710528F48EE190E064
:100DA000F8019183808381E480937C0081E090E06E
:100DB00099838883C092A001D092A101E092A20100
:100DC000F092A301DF91CF911F910F91FF90EF90CF
:100DD000DF90CF900895CF92DF92EF92FF920F9322
:100DE0001F93CF93DF93E90100919C0110919D0126
:100DF00020919E0130919F016B017C01C01AD10AA4
:100E0000E20AF30A2CE2C21621E0D206E104F10460
:100E1000B0F18A016B017C0188819981019739F5D4
:100E2000609178007091790080E090E00E94E30C7E
:100E30002DE637EE4BEF5DE30E94950D20EC32EE90
:100E400044ED5CE30E94D10B0E94B40C6536710541
:100E500020F4F8017183608305C084E690E0F80116
:100E60009183808380E480937C0019821882C092F1
:100E70009C01D0929D01E0929E01F0929F01DF9132
:100E8000CF911F910F91FF90EF90DF90CF90089539
:100E9000009739F48BB183628BB98BB18C7D8BB9A0
:100EA00008958130910539F48BB183628BB98BB190
:100EB0008D7D8BB908958230910539F48BB18362B1
:100EC0008BB98BB18E7D8BB908958330910529F450
:100ED0008BB183628BB95D9808958430910539F4A4
:100EE0008BB183628BB98BB18C7F8BB908958530C0
:100EF000910529F48BB183628BB959980895863096
:100F0000910529F48BB183628BB95898089507979E
:100F100029F48BB183628BB98BB18BB90895CF92D1
:100F2000DF92EF92FF920F931F93CF93C1E02C3388
:100F3000310508F0C0E021E0FA01B397379708F4D3
:100F400020E0211103C0CC2309F4FAC05F9A00917C
:100F500098011091990120919A0130919B016B01A8
:100F60007C01C01AD10AE20AF30AE8EBCE16EBE0E4
:100F7000DE06E104F10408F4E4C08A016B017C019F
:100F800080E50E940F0B81E40E940F0B83E40E9416
:100F90000F0B89E40E940F0B85E40E940F0B8EE477
:100FA0000E940F0B84E50E940F0B85E40E940F0B3B
:100FB00080E20E940F0B85E40E940F0B8DE40E94DB
:100FC0000F0B80E20E940F0B80E50E940F0B85E45F
:100FD0000E940F0B82E50E940F0B89E40E940F0B09
:100FE00087E40E940F0B8FE40E940F0B81E20E94A6
:100FF0000F0B80E20E940F0BCC2321F183E50E94AE
:101000000F0B80E50E940F0B8FE40E940F0B82E311
:101010000E940F0B80E20E940F0B82E40E940F0BD4
:1010200081E40E940F0B89E40E940F0B88E50E9467
:101030000F0B81E40E940F0B81E20E940F0B80E2F4
:101040000E940F0B03321105C8F584E50E940F0BB7
:1010500085E40E940F0B8DE40E940F0B80E50E9437
:101060000F0B85E40E940F0B82E50E940F0B81E4B9
:101070000E940F0B84E50E940F0B85E50E940F0B69
:1010800082E50E940F0B81E40E940F0B80E20E9418
:101090000F0B82E40E940F0B81E40E940F0B89E486
:1010A0000E940F0B88E50E940F0B81E40E940F0B3A
:1010B00081E20E940F0B80E20E940F0B0A321105A1
:1010C000B0F184E50E940F0B85E40E940F0B8DE4C4
:1010D0000E940F0B80E50E940F0B85E40E940F0B0E
:1010E00082E50E940F0B81E40E940F0B84E50E94B1
:1010F0000F0B85E50E940F0B82E50E940F0B81E428
:101100000E940F0B80E20E940F0B81E40E940F0BE4
:101110008CE40E940F0B84E50E940F0B81E40E9477
:101120000F0B81E20E940F0B80E20E940F0BC09216
:101130009801D0929901E0929A01F0929B0101C02E
:101140005F98CF911F910F91FF90EF90DF90CF901C
:10115000089583EE8AB98CE18BB98FEB84B980E472
:1011600085B99CEF97B923E02DBB9AE09093690075
:1011700095E09093680080936B0090E190936D00F0
:1011800092E094BD25BD29EF27BD90936E0080931A
:101190007C0087EE80937A0010927B0010927E0094
:1011A0008FE39CE9909387008093860082EA809386
:1011B00080008AE18093810080ED97E09093890020
:1011C0008093880090938B0080938A0078940E948B
:1011D000A00987E690E00E94020B80900A0190909F
:1011E0000B01A090BC01B090BD01E090B401F09063
:1011F000B5010091B6011091B7012091B80130916D
:10120000B90140910E0150910F016091C0017091A0
:10121000C1018091C2019091C301E091B101EF93AE
:10122000E091B001EF93E0910D01EF93E0910C019B
:10123000EF930F2EF0E1CF2EF1E0DF2EF02D0E9484
:101240006C0200910C0110910D016091C001709130
:10125000C1018091C2019091C3012EEB31E04EE0BB
:1012600051E00E94D8048CEB91E00E94F50560915A
:10127000C0017091C1018091C2019091C30128EB1E
:1012800031E04AEB51E00E9449066091C001709143
:10129000C1018091C2019091C30122EB31E046EB84
:1012A00051E00E9485066091C0017091C10180915A
:1012B000C2019091C30122EB31E044EB51E00E9466
:1012C000EB062091B4013091B5014091B6015091E7
:1012D000B7016091C0017091C1018091C2019091EC
:1012E000C3010E948F078091B0019091B1010E94CB
:1012F00048070F900F900F900F906FCF469866237E
:1013000011F0439A15C0439813C0AC01022E02C0DD
:10131000559547950A94E2F740FF02C0449A01C0F0
:101320004498459A45982150310978F7469A08958E
:1013300027E030E090E0E9CF60E00E947E09089568
:10134000CF93DF933E9A3A9A3B9A3C9A3D9A429ABF
:10135000469A83EC99E00197F1F700C000004298AB
:101360008BE594E40197F1F700C00000429A46989B
:1013700081E20E949C0983E10E949C0986E00E9410
:101380009C0982EC0E949C0980E20E949C0989E0F1
:101390000E949C0980E80E949C0980E40E949C09AC
:1013A000C8EFD1E061E080E00E947E092197D1F78B
:1013B00088E00E949C098CE00E949C09DF91CF91FB
:1013C000089580E80E949C0980E40E949C09109284
:1013D000BC031092BD03E4ECF1E08CEB93E01192BE
:1013E000E817F907E1F70895262F26952695269503
:1013F00090E034E5239F800D911D1124442379F062
:10140000FC01EC53FE4F677081E090E002C0880F52
:10141000991F6A95E2F79081892B80830895FC01DA
:10142000EC53FE4F677081E090E002C0880F991F77
:101430006A95E2F7809590818923808308954F9281
:101440005F926F927F928F929F92AF92BF92CF9254
:10145000DF92EF92FF920F931F93CF93DF93562E5D
:10146000262F30E04901880C991C880C991C820EAB
:10147000931E181419040CF05EC08901000F111F8F
:10148000000F111F000F111F021B130B612CA82E40
:10149000B12CC50180975C01AA0CBB1CAA0CBB1C1B
:1014A000A80EB91E412C0F2EFDEBCF2EF3E0DF2E40
:1014B000F02D0F2EFCEBEF2EF3E0FF2EF02D2DC0C4
:1014C000FE01249130E0872D652D0E94020E02C09E
:1014D000359527958A95E2F720FF0AC0F6016081CD
:1014E000670DF701808141E0860D0E94F40909C073
:1014F000F6016081670DF7018081442D860D0E9401
:10150000F4097394872D90E080179107CCF26394CF
:10151000862D90E08815990574F410161106BCF715
:10152000862D652D0E94020EE501C80FD11DC859F8
:10153000DF4F742CC5CF8091BC0391E0980F852DAF
:10154000880F880F850D890F843518F48093BC03AC
:101550000EC01092BC03EDEBF3E0808191E0980F98
:10156000852D880F880F880F8519890F80838091BA
:10157000BD03803320F01092BC031092BD03DF91B5
:10158000CF911F910F91FF90EF90DF90CF90BF9080
:10159000AF909F908F907F906F905F904F90089545
:1015A0001F93CF93DF93EC018881882341F0162F9E
:1015B0002196612F0E941F0A89918111FACFDF9134
:1015C000CF911F9108958093BC036093BD0308954C
:1015D0000F931F93CF93DF9380E80E949C0980E4D0
:1015E0000E949C09C4ECD1E00CEB13E061E089910E
:1015F0000E947E09C017D107C9F7DF91CF911F91D3
:101600000F9108959093C5008093C40088E980935A
:10161000C10086E08093C200399A38980895E0ECC2
:10162000F0E0908195FFFDCF8093C6000895EF9282
:10163000FF920F931F93CF93DF93CDB7DEB76297DF
:101640000FB6F894DEBF0FBECDBF8B017A010E94AA
:10165000400E9A8B898B65E971E0CE0141960E941C
:10166000610EBC01CE0101960E945A0E65E971E03F
:10167000CE0141960E94610EBC01CE0109960E94E6
:101680005A0ECE0101960E94220EF80191838083AA
:10169000CE0109960E94220EF7019183808321E0FA
:1016A000883E934008F020E081E0F80140815181BC
:1016B000483E534008F080E0822362960FB6F894CB
:1016C000DEBF0FBECDBFDF91CF911F910F91FF9075
:1016D000EF9008951F920F920FB60F9211242F933F
:1016E0003F934F935F936F937F938F939F93AF93AA
:1016F000BF93EF93FF938091C6008A3341F08B3301
:1017000011F581E08093BF031092BE0338C01092A0
:10171000BF03E091BE03F0E0E05FFE4F108242ECB9
:1017200053E060EC73E080E191E00E94170B8111BF
:1017300026C086E0EFE8F1E0A0E1B1E001900D9273
:101740008A95E1F71CC09091BF039923C1F0E09105
:10175000BE03E73048F491E09E0F9093BE03F0E0A3
:10176000E05FFE4F80830BC01092BF0386E0EFE87E
:10177000F1E0A0E1B1E001900D928A95E1F7FF91CF
:10178000EF91BF91AF919F918F917F916F915F91F9
:101790004F913F912F910F900FBE0F901F90189572
:1017A0005058BB27AA270E94E80B0C945B0D0E949F
:1017B0004D0D38F00E94540D20F039F49F3F19F47C
:1017C00026F40C944A0D0EF4E095E7FB0C94440DBE
:1017D000E92F0E946C0D58F3BA176207730784074C
:1017E000950720F079F4A6F50C948E0D0EF4E09593
:1017F0000B2EBA2FA02D0B01B90190010C01CA01CB
:10180000A0011124FF27591B99F0593F50F4503E75
:1018100068F11A16F040A22F232F342F4427585F67
:10182000F3CF469537952795A795F0405395C9F77F
:101830007EF41F16BA0B620B730B840BBAF0915037
:10184000A1F0FF0FBB1F661F771F881FC2F70EC0D6
:10185000BA0F621F731F841F48F4879577956795A9
:10186000B795F7959E3F08F0B0CF9395880F08F095
:101870009927EE0F9795879508950E94200D08F4FB
:1018800081E008950E94560C0C945B0D0E94540D4B
:1018900058F00E944D0D40F029F45F3F29F00C9460
:1018A000440D51110C948F0D0C944A0D0E946C0D37
:1018B00068F39923B1F3552391F3951B550BBB277F
:1018C000AA2762177307840738F09F5F5F4F220FC4
:1018D000331F441FAA1FA9F335D00E2E3AF0E0E8BB
:1018E00032D091505040E695001CCAF72BD0FE2F05
:1018F00029D0660F771F881FBB1F26173707480799
:10190000AB07B0E809F0BB0B802DBF01FF27935850
:101910005F4F3AF09E3F510578F00C94440D0C94C3
:101920008F0D5F3FE4F3983ED4F3869577956795E6
:10193000B795F7959F5FC9F7880F911D9695879585
:1019400097F90895E1E0660F771F881FBB1F6217A4
:1019500073078407BA0720F0621B730B840BBA0B62
:10196000EE1F88F7E09508950E94740D88F09F5748
:1019700098F0B92F9927B751B0F0E1F0660F771FB3
:10198000881F991F1AF0BA95C9F714C0B13091F0A9
:101990000E948E0DB1E008950C948E0D672F782F64
:1019A0008827B85F39F0B93FCCF38695779567956E
:1019B000B395D9F73EF490958095709561957F4FDA
:1019C0008F4F9F4F0895E89409C097FB3EF4909580
:1019D0008095709561957F4F8F4F9F4F9923A9F008
:1019E000F92F96E9BB279395F69587957795679597
:1019F000B795F111F8CFFAF4BB0F11F460FF1BC0DB
:101A00006F5F7F4F8F4F9F4F16C0882311F096E96D
:101A100011C0772321F09EE8872F762F05C066231B
:101A200071F096E8862F70E060E02AF09A95660FD4
:101A3000771F881FDAF7880F9695879597F908958D
:101A4000990F0008550FAA0BE0E8FEEF16161706CF
:101A5000E807F907C0F012161306E407F50798F037
:101A6000621B730B840B950B39F40A2661F0232B50
:101A7000242B252B21F408950A2609F4A140A695CC
:101A80008FEF811D811D089597F99F6780E870E0B1
:101A900060E008959FEF80EC089500240A941616E4
:101AA000170618060906089500240A94121613064C
:101AB000140605060895092E0394000C11F48823DA
:101AC00052F0BB0F40F4BF2B11F460FF04C06F5FF6
:101AD0007F4F8F4F9F4F089557FD9058440F551FCC
:101AE00059F05F3F71F04795880F97FB991F61F0A0
:101AF0009F3F79F087950895121613061406551F17
:101B0000F2CF4695F1DF08C0161617061806991F82
:101B1000F1CF86957105610508940895E894BB2777
:101B200066277727CB0197F908950E94A80D0C949A
:101B30005B0D0E944D0D38F00E94540D20F095234E
:101B400011F00C94440D0C944A0D11240C948F0D3B
:101B50000E946C0D70F3959FC1F3950F50E0551FD7
:101B6000629FF001729FBB27F00DB11D639FAA27F2
:101B7000F00DB11DAA1F649F6627B00DA11D661F41
:101B8000829F2227B00DA11D621F739FB00DA11D62
:101B9000621F839FA00D611D221F749F3327A00D1C
:101BA000611D231F849F600D211D822F762F6A2FB8
:101BB00011249F5750409AF0F1F088234AF0EE0F1D
:101BC000FF1FBB1F661F771F881F91505040A9F74A
:101BD0009E3F510580F00C94440D0C948F0D5F3F97
:101BE000E4F3983ED4F3869577956795B795F79586
:101BF000E7959F5FC1F7FE2B880F911D96958795FE
:101C000097F90895991B79E004C0991F961708F079
:101C1000961B881F7A95C9F780950895AA1BBB1B50
:101C200051E107C0AA1FBB1FA617B70710F0A61BDC
:101C3000B70B881F991F5A95A9F780959095BC01FD
:101C4000CD010895FC0188279927E894219120323D
:101C5000E9F3293010F02E30C8F32B3241F02D3249
:101C600039F4689404C00E94790E820F911D21916D
:101C700020532A30C0F31EF4909581959F4F08950C
:101C80000F931F93CF93DF938C01FC0101900020F1
:101C9000E9F7CF01801B910B0E947610EC010097B1
:101CA00019F0B8010E945A0ECE01DF91CF911F9119
:101CB0000F910895FB01DC0101900D920020E1F7E6
:101CC0000895FC01A081B181AD01109681F03D9194
:101CD000FB01019003160110E1F7C9F7002011F490
:101CE000D00102C01E921196FC01A083B183CA01EB
:101CF00008957AE0979F902D879F802D910D112454
:101D00000895AEE0B0E0E7E8FEE00C945D120D89C6
:101D10001E8986E08C831A8309838FEF9FE79E8359
:101D20008D83AE01475E5F4F6F89788DCE0101963E
:101D30000E94A40E2F813885F801E20FF31F108254
:101D40002E96E4E00C947912ACE0B0E0EAEAFEE012
:101D50000C944F127C016B018A01FC0117821682E0
:101D6000838181FFBDC1CE0101964C01F7019381B2
:101D7000F60193FD859193FF81916F01882309F40A
:101D8000ABC1853239F493FD859193FF81916F0149
:101D9000853229F4B70190E00E94B911E7CF512CA8
:101DA000312C20E02032A0F48B3269F030F4803204
:101DB00059F0833269F420612CC08D3239F08033C0
:101DC00039F4216026C02260246023C0286021C02D
:101DD00027FD27C030ED380F3A3078F426FF06C0D3
:101DE000FAE05F9E300D1124532E13C08AE0389E16
:101DF000300D1124332E20620CC08E3221F426FDCA
:101E00006BC1206406C08C3611F4206802C088368D
:101E100041F4F60193FD859193FF81916F0181114A
:101E2000C1CF982F9F7D9554933028F40C5F1F4F9E
:101E3000FFE3F9830DC0833631F0833771F08335CA
:101E400009F05BC022C0F801808189830E5F1F4FBB
:101E500044244394512C540115C03801F2E06F0E14
:101E6000711CF801A080B18026FF03C0652D70E0D1
:101E700002C06FEF7FEFC5012C870E94AE112C01CD
:101E800083012C852F77222E17C03801F2E06F0EC8
:101E9000711CF801A080B18026FF03C0652D70E0A1
:101EA00002C06FEF7FEFC5012C870E94A3112C01A8
:101EB0002C852068222E830123FC1BC0832D90E0FB
:101EC00048165906B0F4B70180E290E00E94B911BB
:101ED0003A94F4CFF50127FC859127FE81915F01AB
:101EE000B70190E00E94B91131103A94F1E04F1A15
:101EF00051084114510471F7E5C0843611F0893658
:101F000039F5F80127FF07C06081718182819381D3
:101F10000C5F1F4F08C060817181072E000C880B79
:101F2000990B0E5F1F4F2F76722E97FF09C0909569
:101F30008095709561957F4F8F4F9F4F2068722ECF
:101F40002AE030E0A4010E94F111A82EA81844C094
:101F5000853729F42F7EB22E2AE030E025C0F22FFB
:101F6000F97FBF2E8F36C1F018F4883579F0B4C0F0
:101F7000803719F0883721F0AFC02F2F2061B22EA3
:101F8000B4FE0DC08B2D8460B82E09C024FF0AC09A
:101F90009F2F9660B92E06C028E030E005C020E1F2
:101FA00030E002C020E132E0F801B7FE07C06081F6
:101FB0007181828193810C5F1F4F06C060817181A6
:101FC00080E090E00E5F1F4FA4010E94F111A82E47
:101FD000A818FB2DFF777F2E76FE0BC0372D3E7F96
:101FE000A51450F474FE0AC072FC08C0372D3E7E62
:101FF00005C0BA2C372D03C0BA2C01C0B52C34FF54
:102000000DC0FE01EA0DF11D8081803311F4397E8F
:1020100009C032FF06C0B394B39404C0832F8678FE
:1020200009F0B39433FD13C030FF06C05A2CB3142B
:1020300018F4530C5B18B32CB31468F4B70180E2A6
:1020400090E03C870E94B911B3943C85F5CFB3145E
:1020500010F43B1801C0312C34FF12C0B70180E3EB
:1020600090E03C870E94B9113C8532FF17C031FDDA
:1020700003C088E790E002C088E590E0B7010CC09B
:10208000832F867859F031FF02C08BE201C080E2D5
:1020900037FD8DE2B70190E00E94B911A51438F424
:1020A000B70180E390E00E94B9115A94F7CFAA9447
:1020B000F401EA0DF11D8081B70190E00E94B91191
:1020C000A110F5CF332009F451CEB70180E290E0A2
:1020D0000E94B9113A94F6CFF7018681978102C028
:1020E0008FEF9FEF2C96E2E10C946B12CF93DF936E
:1020F0008230910510F482E090E0E091C603F09107
:10210000C70320E030E0C0E0D0E0309711F140811B
:10211000518148175907C0F04817590761F4828167
:102120009381209719F09B838A832BC09093C703D8
:102130008093C60326C02115310519F042175307B5
:1021400018F49A01BE01DF01EF010280F381E02D56
:10215000DCCF2115310509F1281B390B243031055D
:1021600090F412968D919C9113976115710521F051
:10217000FB019383828304C09093C7038093C603BB
:10218000FD01329644C0FD01E20FF31F819391934C
:10219000225031092D933C933AC02091C4033091D1
:1021A000C503232B41F420910201309103013093A8
:1021B000C5032093C4032091000130910101211532
:1021C000310541F42DB73EB740910401509105010E
:1021D000241B350BE091C403F091C503E217F3070C
:1021E000A0F42E1B3F0B2817390778F0AC014E5F87
:1021F0005F4F2417350748F04E0F5F1F5093C503FC
:102200004093C4038193919302C0E0E0F0E0CF01DA
:10221000DF91CF9108950F931F93CF93DF93009792
:1022200009F48CC0FC013297138212820091C6031C
:102230001091C7030115110581F420813181820FAE
:10224000931F2091C4033091C5032817390779F5EE
:10225000F093C503E093C40371C0D80140E050E09F
:10226000AE17BF0750F412962D913C911397AD0114
:102270002115310509F1D901F3CF9D01DA0133832D
:10228000228360817181860F971F8217930769F4FB
:10229000EC0128813981260F371F2E5F3F4F318394
:1022A00020838A819B8193838283452B29F4F09339
:1022B000C703E093C60342C01396FC93EE931297B4
:1022C000ED01499159919E01240F351FE217F30743
:1022D00071F480819181840F951F029611969C93D1
:1022E0008E938281938113969C938E931297E0E054
:1022F000F0E0D80112968D919C911397009719F0F8
:10230000F8018C01F6CF8D919C9198012E5F3F4F83
:10231000820F931F2091C4033091C50328173907FA
:1023200069F4309729F41092C7031092C60302C0D3
:10233000138212821093C5030093C403DF91CF91DF
:102340001F910F910895FC0105906150704001109C
:10235000D8F7809590958E0F9F1F0895FC016150CE
:10236000704001900110D8F7809590958E0F9F1FB7
:1023700008950F931F93CF93DF93FB01238121FDDA
:1023800003C08FEF9FEF28C022FF16C04681578100
:10239000248135814217530744F4A081B1819D0106
:1023A0002F5F3F4F318320838C93268137812F5FAE
:1023B0003F4F3783268310C0EB01092F182F00846D
:1023C000F185E02D0995892BE1F68E819F8101969B
:1023D0009F838E83812F902FDF91CF911F910F913B
:1023E0000895FA01AA27283051F1203181F1E894AB
:1023F0006F936E7F6E5F7F4F8F4F9F4FAF4FB1E0F8
:102400003ED0B4E03CD0670F781F891F9A1FA11DF2
:10241000680F791F8A1F911DA11D6A0F711D811DF3
:10242000911DA11D20D009F468943F912AE0269FB8
:1024300011243019305D3193DEF6CF010895462F17
:102440004770405D4193B3E00FD0C9F7F6CF462FF8
:102450004F70405D4A3318F0495D31FD4052419361
:1024600002D0A9F7EACFB4E0A6959795879577951E
:102470006795BA95C9F700976105710508959B01A5
:10248000AC010A2E06945795479537952795BA952E
:10249000C9F7620F731F841F951FA01D08952F9207
:1024A0003F924F925F926F927F928F929F92AF92E4
:1024B000BF92CF92DF92EF92FF920F931F93CF9331
:1024C000DF93CDB7DEB7CA1BDB0B0FB6F894DEBFC8
:1024D0000FBECDBF09942A88398848885F846E84EE
:1024E0007D848C849B84AA84B984C884DF80EE8038
:1024F000FD800C811B81AA81B981CE0FD11D0FB641
:10250000F894DEBF0FBECDBFED010895F894FFCF64
:102510000000C803200008000000010008001E00A1
:10252000484848784C4C4C002564002020205465D5
:102530006C612031002042504D0020B04300202526
:1025400000206D6D48670020202054656C612032AA
:102550000020526573702F4D696E202A2A002520B5
:102560004F320020566F6C756D6500205265737098
:102570002F4D696E0025204F32202A2A0020566FE9
:102580006C756D65202A2A00202020436F6E666FCF
:1025900072746F002025206461204C757A002045FC
:0825A00052524F2100780000A7
:00000001FF
